:020000040800F2
:1000000000000320212900080D2400081324000803
:10001000192400081F2400082524000800000000FF
:100020000000000000000000000000002B24000879
:100030003924000800000000472400085524000867
:100040007129000871290008712900087129000828
:100050007129000871290008712900087129000818
:100060007129000871290008712900087129000808
:1000700071290008712900087129000895240008D9
:1000800071290008712900087129000871290008E8
:10009000712900087129000871290008A9240008A5
:1000A0007129000871290008B92400087129000885
:1000B000CD24000871290008712900087129000861
:1000C00071290008712900087129000871290008A8
:1000D0007129000871290008712900087129000898
:1000E000E12400087129000871290008712900081D
:1000F0007129000871290008712900087129000878
:100100007129000871290008712900087129000867
:100110007129000871290008712900087129000857
:100120007129000871290008712900087129000847
:100130007129000871290008712900087129000837
:100140007129000871290008712900087129000827
:100150007129000871290008712900087129000817
:100160007129000871290008712900087129000807
:100170007129000871290008712900080000000099
:1001800071290008712900087129000871290008E7
:1001900071290008712900087129000871290008D7
:0C01A0007129000871290008712900086D
:1001B00010B5054C237833B9044B13B10448AFF3A1
:1001C00000800123237010BD3801002000000000D2
:1001D000249D020808B5034B1BB103490348AFF344
:1001E000008008BD000000003C010020249D0208A2
:1001F00001F0FF01102A2BDB10F0070F08D010F8D8
:10020000013B013A8B422DD010F0070F42B3F6D1DB
:10021000F0B441EA012141EA014122F007047FF0F4
:1002200000070023F0E80256083C85EA010586EA4B
:10023000010685FA47F5A3FA87F586FA47F6A5FA87
:1002400087F68EB9EED1F0BC01F0FF0102F0070293
:1002500032B110F8013B013A83EA010313B1F8D13E
:100260000020704701387047002D06BF354603381F
:10027000073815F0010F07D1013015F4807F02BF58
:10028000013015F4C03F0130F0BC0138704700BFA9
:1002900053B94AB9002908BF00281CBF4FF0FF31ED
:1002A0004FF0FF3000F070B9ADF1080C6DE904CEED
:1002B00000F006F8DDF804E0DDE9022304B0704741
:1002C0002DE9F047089E0D4604460F46002B4AD103
:1002D0008A42944665D9B2FA82F343B102FA03FC2A
:1002E000C3F120029F4020FA02F217439C404FEADC
:1002F0001C4E1FFA8CF5B7FBFEF1220C0EFB11779A
:1003000042EA074201FB05F090420AD91CEB0202C7
:1003100001F1FF3780F01C81904240F219810239CF
:100320006244121AA4B2B2FBFEF00EFB102244EAA1
:10033000024400FB05F5A5420AD91CEB040400F1B8
:10034000FF3280F00781A54240F204816444023804
:1003500040EA0140641B00211EB1DC400023C6E9D5
:100360000043BDE8F0878B4208D9002E00F0ED80F5
:100370000021C6E900050846BDE8F087B3FA83F11D
:10038000002949D1AB4202D3824200F2F880841A9C
:1003900065EB030201201746002EE2D0C6E90047B4
:1003A000DFE702B9FFDEB2FA82F3002B40F0908063
:1003B0008A1A4FEA1C471FFA8CFE0121B2FBF7F59F
:1003C00007FB1520220C42EA00420EFB05F090428A
:1003D00008D91CEB020205F1FF3802D2904200F26C
:1003E000CB804546121AA4B2B2FBF7F007FB1022ED
:1003F00044EA02440EFB00FEA64508D91CEB0404A7
:1004000000F1FF3202D2A64500F2BB801046A4EBF9
:100410000E0440EA05409FE7C1F120078B4022FA15
:1004200007FC4CEA030C05FA01F420FA07F3FD403F
:100430004FEA1C492343B5FBF9F81FFA8CFE09FB70
:1004400018551C0C44EA054408FB0EF5A54202FAB7
:1004500001F200FA01F00BD91CEB040408F1FF3A99
:1004600080F08880A54240F28580A8F102086444AB
:10047000641B9DB2B4FBF9F309FB134445EA044441
:1004800003FB0EFEA64508D91CEB040403F1FF355F
:100490006CD2A6456AD9023B644443EA0843A3FBF5
:1004A0000295A4EB0E04AC42C846AE4656D353D0D8
:1004B00056B1B0EB080264EB0E0404FA07F7CA4029
:1004C000CC401743C6E9007418460021BDE8F08708
:1004D000C3F1200102FA03FC20FA01F225FA01F12E
:1004E0009D402A434FEA1C471FFA8CFEB1FBF7F0F0
:1004F00007FB1015110C41EA054100FB0EF58D427A
:1005000004FA03F408D91CEB010100F1FF382FD2E3
:100510008D422DD902386144491B92B2B1FBF7F5E7
:1005200007FB151142EA014205FB0EF1914208D981
:100530001CEB020205F1FF3816D2914214D9023D9C
:100540006244521A45EA004138E73146304608E72E
:100550003946E6E61046FBE64845A9D2B9EB020863
:1005600065EB0C0E013BA3E74546EAE72B4694E713
:100570004046D1E7D0467BE7023D624432E7084679
:100580000AE76444023842E7704700BF80B584B090
:1005900000AF0346FB80FB88184600F009F90346CC
:1005A000FB73FB7BFF2B0CD1002000F001F903460D
:1005B000BB73BB7B012B04D8BB7BFA88D1B2034A47
:1005C000D15400BF1037BD4680BD00BF540100208C
:1005D00080B483B000AF0346FB8000BF0C37BD463C
:1005E0005DF8047B704780B582B000AF0346FB80A6
:1005F000FB88DBB2A821184600F01EF903469BB227
:1006000018460837BD4680BD80B582B000AF0346AE
:10061000FB80FB88184600F0BCF8FB88184600F009
:100620008DF800BF0837BD4680BD000080B584B09E
:1006300000AF0346FB800023FB73FB88DBB2022183
:10064000184600F0F9F80346FB73FB7BDBB203F0BE
:100650000F03DBB2FB73FB7BDBB2022B01D9002360
:10066000FB73FB7BDAB2054B5A70044B00229A7085
:10067000FB7BDBB218461037BD4680BD5801002019
:1006800080B586B000AF0346B9607A60FB81002375
:10069000FB751F4B9A781E4B5B789A4234D21C4BE9
:1006A0009B78002B02D0012B03D005E00323FB75C0
:1006B00002E00923FB7500BFFB89D8B207F11002E5
:1006C000F97D042300F0E0F83B7C1B021BB203F42D
:1006D00070631AB27B7C1BB213431BB29AB2BB6825
:1006E0001A80BB7C1B021BB203F470631AB2FB7C42
:1006F0001BB213431BB29AB27B681A80044B9B78DF
:100700000133DAB2024B9A7000BF1837BD4680BD84
:100710005801002080B584B000AF0346FB80002361
:10072000FB730123FB73FB88DBB2FA7BA421184621
:1007300000F060F800BF1037BD4680BD80B584B0C2
:1007400000AF0346FB800023FB730023FB73FB8891
:10075000DBB2FA7BA421184600F04CF800BF10373A
:10076000BD4680BD80B483B000AF0346FB8000234C
:1007700018460C37BD465DF8047B704780B483B0E3
:1007800000AF0346FB8000BF0C37BD465DF8047B1D
:10079000704780B485B000AF0346FB800023FB6048
:1007A000FB6818461437BD465DF8047B70470000AF
:1007B00080B485B000AF0346FB800023FB730023A9
:1007C000FB730BE0FB7B0A4AD35C9BB2FA889A422C
:1007D00001D1FB7B06E0FB7B0133FB73FB7B012B31
:1007E000F0D9FF2318461437BD465DF8047B7047E7
:1007F0005401002080B588B004AF0346FB710B465E
:10080000BB7113467B710023FB73FB7999B2BB79F3
:100810009AB264230293012301937B1D0093012369
:10082000044803F01BF90346FB7300BF1037BD46B5
:1008300080BD00BFBC02002080B588B004AF034675
:100840000A46FB711346BB710023FB730023BB7385
:10085000FB799BB2013399B2BB799AB24FF47A73A8
:1008600002930123019307F10E030093012305482E
:1008700003F0EEF90346FB73BB7B18461037BD4609
:1008800080BD00BFBC02002080B588B004AF3A60D4
:100890001A460346FB710B46BB711346BB8000230F
:1008A000FB73FB7999B2BB799AB24FF47A730293D6
:1008B000BB8801933B6800930123054803F0C8F906
:1008C0000346FB7300BF18461037BD4680BD00BF0E
:1008D000BC02002080B592B000AFF860B9607A60C9
:1008E0007B80FB68BA681A60FB687A685A60FB68AC
:1008F0007A881A81F86800F0CDF8952387F8463099
:1009000007F146031A460221F86800F0DFF90346B2
:1009100087F8473097F84730002B02D0544828F02A
:1009200041F907F145031A460221F86800F0B2F9CF
:10093000034687F8473097F84730002B03D04D48DF
:1009400028F030F90DE097F845301A4607F110030A
:100950004949184627F0DEFF07F11003184628F032
:10096000BBF8892387F8463007F146031A4603216E
:10097000F86800F0ABF9034687F8473097F847303E
:10098000002B02D03D4828F00DF907F145031A4627
:100990000321F86800F07EF9034687F8473097F89E
:1009A0004730002B03D0364828F0FCF80DE097F8CC
:1009B00045301A4607F110033249184627F0AAFFBE
:1009C00007F11003184628F087F8E12387F846302E
:1009D00007F146031A460521F86800F077F9034647
:1009E00087F8473097F84730002B02D0264828F088
:1009F000D9F807F145031A460521F86800F04AF9CD
:100A0000034687F8473097F84730002B02D01F483D
:100A100028F0C8F897F8453019461D4828F05CF8CA
:100A200007F146031A460621F86800F04FF903461D
:100A300087F8473097F84730002B02D0124828F04B
:100A4000B1F807F145031A460621F86800F022F9CB
:100A5000034687F8473097F84730002B02D00B4801
:100A600028F0A0F800BF18464837BD4680BD00BF3B
:100A70003C9D0208689D0208909D0208A09D020806
:100A8000D49D0208049E0208209E0208549E02087B
:100A9000849E020880B590B000AF78607B6858688B
:100AA0007B681B890022194602F062FE052001F0D6
:100AB000A3FF7B6858687B681B890122194602F0F6
:100AC00057FE012001F098FF802387F83E3007F1A0
:100AD0003E031A460821786800F0F8F8034687F8C4
:100AE0003F3097F83F30002B02D02F4828F05AF8BB
:100AF00007F13D031A460821786800F0CBF8034659
:100B000087F83F3097F83F30002B03D0274828F074
:100B100049F80DE097F83D301A4607F108032449DB
:100B2000184627F0F7FE07F10803184627F0D4FF10
:100B3000002387F83E3007F13E031A460821786803
:100B400000F0C4F8034687F83F3097F83F30002B99
:100B500002D0184828F026F807F13D031A4608216C
:100B6000786800F097F8034687F83F3097F83F30F1
:100B7000002B03D00D4828F015F80DE097F83D3014
:100B80001A4607F108030A49184627F0C3FE07F181
:100B90000803184627F0A0FF074828F003F800BF15
:100BA0004037BD4680BD00BF9C9E0208CC9E020817
:100BB000F09E0208009F0208309F020880B584B0B2
:100BC00000AF786007F10D031A460521786800F040
:100BD00061F80346FB73FB7B002B02D00F4827F024
:100BE000E1FF7B7B132B15D907F10E031A46052174
:100BF000786800F06BF80346FB73FB7B002B02D098
:100C0000074827F0CFFF7B7B0A3B1946054827F0B2
:100C100063FF00E000BF1037BD4680BD549E020850
:100C2000209E0208409F020880B584B000AF786023
:100C300007F10D031A460521786800F02BF80346EA
:100C4000FB73FB7B002B02D00F4827F0ABFF7B7BB5
:100C5000EB2B15D807F10E031A460521786800F032
:100C600035F80346FB73FB7B002B02D0074827F0C7
:100C700099FF7B7B0A331946054827F02DFF00E0DA
:100C800000BF1037BD4680BD549E0208209E02085A
:100C9000409F020880B58AB004AFF8600B467A60C6
:100CA0007B81FB6818687A894FF0FF330293012338
:100CB00001937B6800930123912102F0C9FF034651
:100CC000FB75FB7D18461837BD4680BD80B58AB0E0
:100CD00004AFF8600B467A607B81FB6818687A89FC
:100CE0004FF0FF330293012301937B6800930123AC
:100CF000902102F0B3FE0346FB75FB7D18461837C2
:100D0000BD4680BD80B500AF00221021034802F02F
:100D10002FFD012001F070FE00BF80BD00000240E9
:100D200080B500AF01221021034802F021FD01200F
:100D300001F062FE00BF80BD0000024080B582B0BD
:100D400000AF0346FB7100BF084B1B689B6803F0B4
:100D50000203022BF8D1F91D64230122034805F098
:100D6000D0FD00BF0837BD4680BD00BF0C04002089
:100D700080B582B000AF78600B467B8000BF084B27
:100D80001B689B6803F00203022BF8D17A88642366
:100D90007968034805F0B5FD00BF0837BD4680BD42
:100DA0000C04002080B584B002AFFF23FB7100BFAC
:100DB000094B1B689B6803F00203022BF8D1BA1D94
:100DC000F91D642300930123034805F0D6FEBB7987
:100DD00018460837BD4680BD0C04002080B582B09F
:100DE00000AF7860FFF7DEFF03461A467B681A7093
:100DF00000BF0837BD4680BD80B582B000AF0A4B4A
:100E00004FF4FA721A80FFF7CDFF0346FB71FB79AE
:100E1000FF2B03D0044B1B88002BF4D1FB79184621
:100E20000837BD4680BD00BF5E01002080B584B09C
:100E300000AF41F6FF73FB60FFF772FF0023BB605A
:100E400005E0FF20FFF77AFFBB680133BB60BB689A
:100E5000092BF6DDFFF756FF40233B7000237B7024
:100E60000023BB700023FB7000233B7195237B7133
:100E70003B4606211846FFF77BFF02E0FB68013B7B
:100E8000FB60FFF78FFF0346012B02D0FB68002BAE
:100E9000F4D1FFF745FFFF20FFF750FF034B01227E
:100EA0001A7000BF1037BD4680BD00BF6101002031
:100EB00080B400AF034B00221A7000BFBD465DF83E
:100EC000047B70476101002080B400AF034B1B78A6
:100ED0001846BD465DF8047B704700BF61010020E5
:100EE00080B584B000AF78603960134BC8221A8097
:100EF000FFF758FF0346FB73FB7BFF2B03D10E4B21
:100F00001B88002BF4D1FB7BFE2B01D000230FE0CC
:100F10007B685A1C7A601846FFF760FF3B685A1ED0
:100F20003A60002BF4D1FFF73DFFFFF73BFF0123B1
:100F300018461037BD4680BD5C01002080B584B0E6
:100F400000AF78600B46FB700023BB73FFF754FFC4
:100F50000346FF2B01D000232FE0FB781846FFF754
:100F6000EDFEFB78FD2B20D04FF400717868FFF781
:100F7000FFFEFFF717FFFFF715FF0BE0FFF712FF6C
:100F80000346FB73FB7B03F01F03052B06D0BB7BE3
:100F90000133BB73BB7B402BF0D900E000BF00BF27
:100FA000FFF700FF0346002BFAD0FB7B03F01F0383
:100FB000052B01D1012300E0002318461037BD4660
:100FC00080BD80B584B000AF03463960FB71FFF788
:100FD00013FF0346FF2B01D0FF2342E0FB791846A5
:100FE000FFF7ACFE3B681B0EDBB21846FFF7A6FE10
:100FF0003B681B0CDBB21846FFF7A0FE3B681B0AE0
:10100000DBB21846FFF79AFE3B68DBB21846FFF7E3
:1010100095FEFB79402B02D19523FB7307E0FB790A
:10102000482B02D18723FB7301E00123FB73FB7B79
:101030001846FFF783FEFB794C2B01D1FFF7B2FE78
:101040000A23BB73FFF7AEFE03467B7397F90D309F
:10105000002B05DABB7B013BBB73BB7B002BF1D1C3
:101060007B7B18461037BD4680BD000090B585B02B
:1010700000AF0346FB71FB79002B01D00123D1E0C7
:101080006A4B1B78DBB203F00203002B03D0674BE3
:101090001B78DBB2C6E0FFF7C9FEFFF733FE002383
:1010A000BB7300214020FFF78CFF0346012B40F06B
:1010B000A1805F4B4FF47A721A804FF4D5714820AB
:1010C000FFF77FFF0346012B55D10023FB730CE094
:1010D000FC7BFFF767FE03461A4604F110033B440E
:1010E00003F8082CFB7B0133FB73FB7B032BEFD94D
:1010F000BB7A012B7ED1FB7AAA2B7BD100217720F2
:10110000FFF75FFF0346012B07D84FF080416920AE
:10111000FFF757FF0346002B04D0454B1B88002BDD
:10112000ECD100E000BF424B1B88002B62D00021B5
:101130007A20FFF746FF0346002B5BD10023FB73A9
:101140000CE0FC7BFFF72EFE03461A4604F1100369
:101150003B4403F8082CFB7B0133FB73FB7B032B25
:10116000EFD93B7A03F04003002B01D00C2300E0C1
:101170000423BB733EE000217720FFF722FF0346E4
:10118000012B08D800216920FFF71BFF0346012B24
:1011900001D8022300E00123BB73BB7B022B0ED1DD
:1011A00000217720FFF70DFF0346012B0ED8002109
:1011B0006920FFF706FF0346002B07D10CE0002152
:1011C0004120FFF7FEFE0346002B04D0184B1B887E
:1011D000002BE2D100E000BF154B1B88002B07D08D
:1011E0004FF400715020FFF7ECFE0346002B01D0B6
:1011F0000023BB730F4ABB7B1370FFF791FDFFF712
:10120000D1FDBB7B002B08D0084B1B78DBB223F051
:101210000103DAB2054B1A7001E0FFF749FE034BF8
:101220001B78DBB218461437BD4690BD2C00002059
:101230005C0100206001002080B483B000AF034651
:10124000FB71FB79002B01D0012302E0044B1B78DA
:10125000DBB218460C37BD465DF8047B704700BF13
:101260002C00002080B584B000AFB9607A603B608C
:101270000346FB73FB7B002B02D13B68002B01D1A3
:10128000042351E02A4B1B78DBB203F00103002B4F
:1012900001D0032348E0274B1B7803F00403002B05
:1012A00002D17B685B027B60FFF72CFD3B68012B62
:1012B00011D179685120FFF784FE0346002B29D114
:1012C0004FF40071B868FFF70BFE0346002B21D0E6
:1012D00000233B601EE079685220FFF772FE034650
:1012E000002B17D14FF40071B868FFF7F9FD0346E2
:1012F000002B0AD0BB6803F50073BB603B68013B61
:101300003B603B68002BEDD100E000BF00214C208A
:10131000FFF757FEFFF704FDFFF744FD3B68002B86
:1013200014BF01230023DBB218461037BD4680BD31
:101330002C0000206001002080B584B000AFB960AF
:101340007A603B600346FB73FB7B002B02D13B685A
:10135000002B01D104236BE0374B1B78DBB203F089
:101360000103002B01D0032362E0334B1B78DBB277
:1013700003F00403002B01D0022359E02F4B1B780C
:1013800003F00403002B02D17B685B027B60FFF754
:10139000B9FC3B68012B10D179685820FFF711FE8A
:1013A0000346002B3AD1FE21B868FFF7C7FD03467C
:1013B000002B33D000233B6030E0204B1B7803F040
:1013C0000203002B07D000217720FFF7FAFD3968D0
:1013D0005720FFF7F6FD79685920FFF7F2FD034625
:1013E000002B1BD1FC21B868FFF7A8FD0346002B9A
:1013F0000AD0BB6803F50073BB603B68013B3B60F0
:101400003B68002BEED100E000BFFD210020FFF77C
:1014100095FD0346002B01D101233B60FFF780FCC3
:10142000FFF7C0FC3B68002B14BF01230023DBB295
:1014300018461037BD4680BD2C00002060010020FA
:1014400090B58BB000AF03463A60FB710B46BB71A1
:101450003B683B62FB79002B01D0042315E101239B
:1014600087F82730BB79052B24D13B6A1B78022BE8
:1014700012D0022B1ADC002B02D0012B06D015E073
:10148000FFF716FD002387F82730FCE0FFF7CEFCBE
:10149000002387F82730F6E03B6A5C1CFFF714FD59
:1014A00003462370002387F82730ECE0042387F8F5
:1014B0002730E8E0774B1B78DBB203F00103002B09
:1014C00001D00323E1E0FFF71DFCBB790D2B00F2F7
:1014D000CB8001A252F823F0D315000811150008A3
:1014E000C315000869160008691600086916000887
:1014F00069160008691600086916000869160008D0
:1015000069160008E5150008091600082D160008E0
:1015100000214920FFF755FD0346002B40F0A8802D
:1015200007F10C0310211846FFF7DAFC0346002BE5
:1015300000F09E803B7B9B09DBB2012B0ED17B7DB3
:101540009AB23B7D9BB21B029BB213449BB2013308
:10155000FB83FB8B9A023B681A602EE07B7C03F0D6
:101560000F03DAB2BB7DDB09DBB21344DAB27B7D59
:101570005B00DBB203F00603DBB21344DBB20233E1
:1015800087F826303B7D9B09DBB29AB2FB7C9BB28D
:101590009B009BB213449AB2BB7C9B029BB203F4A8
:1015A00040639BB213449BB20133FB83FA8B97F8E1
:1015B0002630093B9A403B681A60002387F82730A1
:1015C00056E03B684FF400721A80002387F82730FA
:1015D00055E0FFF711FC0346FF2B4BD1002387F8A2
:1015E000273047E000214920FFF7EBFC0346002BA2
:1015F00042D11021386AFFF773FC0346002B3BD021
:10160000002387F8273037E000214A20FFF7D9FC74
:101610000346002B32D11021386AFFF761FC0346E4
:10162000002B2BD0002387F8273027E000217A20D9
:10163000FFF7C7FC0346002B16D1002387F826309E
:101640000BE03C6A631C3B62FFF7ACFB0346237074
:1016500097F82630013387F8263097F82630032B89
:10166000EFD9002387F82730042387F8273006E0D6
:1016700000BF04E000BF02E000BF00E000BFFFF7D2
:101680004FFBFFF78FFB97F8273018462C37BD46E6
:1016900090BD00BF2C00002080B5A6B000AF2F4841
:1016A00009F057FA034687F897302C492C4809F07F
:1016B000A0F9034687F8973097F8972007F164035D
:1016C0002849184627F026F907F16403184627F041
:1016D00003FA97F89730002B3AD1234827F062FAA3
:1016E00022491F4809F0F8F9034687F8973097F820
:1016F0009730002B2CD11D4B9B7D002B28D01B4BF2
:101700001B7A03F01003002BEAD11949194827F07E
:1017100073FA0346002BE3D0174827F043FA174A21
:101720003B461068516803C3127A1A7007F1090327
:101730005B220021184627F075FA3B460D491846F2
:1017400027F038FA034619460D4800F03BF8C7E782
:101750000B4B1B6818469837BD4680BD589F020842
:1017600064010020609F0208949F020898010020F5
:10177000B49F0208AE010020BC9F0208CC9F020863
:10178000B002002080B584B000AF78603C2027F024
:1017900005F80346FB60FB68002B02D1012026F010
:1017A000EBFFFB6832227968184627F012FAFB68D3
:1017B00000225A63FB6800229A63FB6818461037C0
:1017C000BD4680BD80B584B000AF786039603868B0
:1017D000FFF7D8FFB8607B681B68002B03D17B68DC
:1017E000BA681A6010E07B681B68FB6002E0FB6867
:1017F0005B6BFB60FB685B6B002BF8D1FB68BA6826
:101800005A63BB68FA689A6300BF1037BD4680BD53
:1018100080B483B000AF78604FF06043D3F8803E6F
:1018200003F00103002B13D04FF06043D3F8003EC8
:1018300003F00103002B0BD000E000BF4FF060432A
:101840001B68002BF9D04FF060437A68D2B21A704F
:101850007B6818460C37BD465DF8047B704780B541
:1018600086B000AFF860B9607A6000237B6109E060
:10187000BB685A1CBA601B781846FFF7C9FF7B6922
:1018800001337B617A697B689A42F1DB7B68184699
:101890001837BD4680BD000080B500AF01F06AF882
:1018A00000F07CF800F04EFA00F02CFA00F0E6F8B8
:1018B00000F0DCF900F036F900F0F4F800F0A0F9DF
:1018C00006F04AF800F06EF909F0DCFC2A4805F051
:1018D00011FC00F0E3FE0A2001F08EF8FFF7DCFEB9
:1018E0000346264A1360254B1B68254A1360234B89
:1018F0001B68184600F0E8FE0A2001F07DF8214B35
:101900001B78DBB2042BFAD801A252F823F000BFF7
:10191000FF18000825190008471900084D1900088C
:1019200061190008184800F017FF0A2001F064F858
:101930004FF40063154A16491648FEF7CBFF114BCA
:1019400002221A7016E000F031FF13E00E4800F09A
:10195000B0FF114B01221A700A4B00221A7009E0E5
:101960000D4B00221A7000F021FF064B02221A7064
:1019700000BFC4E7C3E700BF64040020AC0400203C
:10198000B0040020C004002064030020000C0240CA
:1019900010030020B4040020C104002080B594B0DE
:1019A00000AF07F1200330220021184627F03AF952
:1019B00007F10C0300221A605A609A60DA601A611B
:1019C0000023BB602B4B1B6C2A4A43F080531364EB
:1019D000284B1B6C03F08053BB60BB6800237B600B
:1019E000254B1B68244A43F440431360224B1B6879
:1019F00003F440437B607B6801233B624FF48033F8
:101A00007B620223BB634FF48003FB6304233B64CC
:101A1000B4237B640223BB640423FB6407F120032B
:101A2000184603F0FDFF0346002B01D000F0ACFA8E
:101A300003F0A6FF0346002B01D000F0A5FA0F2308
:101A4000FB6002233B6100237B614FF4A053BB6129
:101A50004FF48053FB6107F10C030521184604F095
:101A600057FA0346002B01D000F08EFA00BF503722
:101A7000BD4680BD003802400070004080B500AF18
:101A8000064B074A1A60054801F0C9F80346002BC7
:101A900001D000F079FA00BF80BD00BFB402002081
:101AA0000030024080B500AF1B4B1C4A1A601A4B35
:101AB0001B4A5A60184B00229A60174B0022DA60CA
:101AC000154B4FF480421A61134B00225A61124B9E
:101AD00000229A61104B0022DA610F4B00221A6239
:101AE0000D4801F077FE0346002B01D000F04CFAC0
:101AF0000021094802F02DFE0346002B01D000F022
:101B000043FA0021044802F060FE0346002B01D096
:101B100000F03AFA00BF80BDBC0200200054004033
:101B2000801A060080B500AF1B4B1C4A1A601A4B86
:101B30001B4A5A60184B00229A60174B0022DA6049
:101B4000154B4FF480421A61134B00225A61124B1D
:101B500000229A61104B0022DA610F4B00221A62B8
:101B60000D4801F037FE0346002B01D000F00CFABF
:101B70000021094802F0EDFD0346002B01D000F0E2
:101B800003FA0021044802F020FE0346002B01D096
:101B900000F0FAF900BF80BD10030020005800409B
:101BA000A086010080B500AF134B144A1A60124B97
:101BB0004FF400725A60104B00229A600E4B0022C4
:101BC000DA600D4B00221A610B4B4AF644425A610F
:101BD000094B00229A61084B0022DA61064B002271
:101BE0001A62054802F030FE0346002B01D000F0D7
:101BF000CBF900BF80BD00BF640300200038004067
:101C000080B500AF174B184A1A60164B4FF482721A
:101C10005A60144B00229A60124B0022DA60114B7A
:101C200000221A610F4B00225A610E4B4FF40072D2
:101C30009A610C4B0022DA610A4B00221A62094BAE
:101C400000225A62074B00229A62064B0A22DA628D
:101C5000044804F0CDFD0346002B01D000F094F9B8
:101C600000BF80BD0C0400200030014080B586B06C
:101C700000AF07F1080300221A605A609A60DA6028
:101C80003B4600221A605A601D4B4FF080421A609A
:101C90001B4B64225A601A4B00229A60184B4CF27C
:101CA0005032DA60164B00221A61154B00229A61FD
:101CB000134805F0CFF90346002B01D000F064F97A
:101CC0004FF48053BB6007F1080319460C4805F038
:101CD00089FB0346002B01D000F056F900233B603E
:101CE00000237B603B461946054805F0A5FD0346E9
:101CF000002B01D000F048F900BF1837BD4680BD69
:101D00006404002080B582B000AF00237B600C4BE0
:101D10001B6B0B4A43F400131363094B1B6B03F457
:101D200000137B607B68002200210F2000F040FF41
:101D30000F2000F059FF00BF0837BD4680BD00BF2F
:101D40000038024080B58AB000AF07F114030022CA
:101D50001A605A609A60DA601A6100233B61584B3E
:101D60001B6B574A43F080031363554B1B6B03F007
:101D700080033B613B690023FB60514B1B6B504A66
:101D800043F0010313634E4B1B6B03F00103FB6035
:101D9000FB680023BB604A4B1B6B494A43F00203BC
:101DA0001363474B1B6B03F00203BB60BB6800234C
:101DB0007B60434B1B6B424A43F008031363404B69
:101DC0001B6B03F008037B607B6800233B603C4B8C
:101DD0001B6B3B4A43F004031363394B1B6B03F04B
:101DE00004033B603B6801221021364801F0C0FC2F
:101DF00000224FF48041344801F0BAFC00224FF435
:101E00007061324801F0B4FC10237B610123BB6197
:101E10000023FB6100233B6207F1140319462948A4
:101E200001F0FAFA4FF480437B610123BB61002388
:101E3000FB6100233B6207F114031946224801F0BD
:101E4000EBFA4FF470637B610123BB610023FB61FC
:101E500000233B6207F1140319461C4801F0DCFA29
:101E60004FF4F0537B614FF48813BB610023FB6197
:101E700007F114031946164801F0CEFA01237B61DD
:101E80004FF48813BB610023FB6107F1140319466B
:101E90000E4801F0C1FA00220021172000F088FE50
:101EA000172000F0A1FE00220021282000F080FE73
:101EB000282000F099FE00BF2837BD4680BD00BF36
:101EC000003802400000024000040240000C0240C2
:101ED0000008024080B582B000AF78607B681B6864
:101EE000B3F1804F01D10FF0D4FC7B681B68044A2A
:101EF000934201D100F060FD00BF0837BD4680BDB0
:101F00000048014080B582B000AF0346FB80FB88EB
:101F1000B3F5007F12D1184B1B78DBB2022B0DD02A
:101F2000164B1B78002B06D0154800F0CDFC124B49
:101F300004221A701DE0104B01221A70FB88B3F5C1
:101F4000806F07D10C4B1B78DBB2032B02D00A4BFE
:101F500003221A70FB88B3F5805F02D10948FEF7AF
:101F60002DFEFB88012B03D10648FEF75DFE00E045
:101F700000BF0837BD4680BDC0040020C10400205A
:101F800064030020B404002080B400AF72B600BF28
:101F9000FEE7000080B483B000AF00237B60104BED
:101FA0005B6C0F4A43F4804353640D4B5B6C03F44A
:101FB00080437B607B6800233B60094B1B6C084AB5
:101FC00043F080531364064B1B6C03F080533B605B
:101FD0003B6800BF0C37BD465DF8047B704700BF0F
:101FE0000038024080B485B000AF78607B681B6821
:101FF0000B4A93420DD10023FB600A4B1B6B094A2D
:1020000043F480531363074B1B6B03F48053FB6053
:10201000FB6800BF1437BD465DF8047B704700BF06
:10202000003002400038024080B58CB000AF7860CC
:1020300007F11C0300221A605A609A60DA601A6184
:102040007B681B68324A93422CD10023BB61314B21
:102050001B6B304A43F0020313632E4B1B6B03F0E0
:102060000203BB61BB69C023FB6112233B620123F6
:102070007B620323BB620423FB6207F11C03194646
:10208000254801F0C9F900237B61224B1B6C214AD2
:1020900043F4001313641F4B1B6C03F400137B61A8
:1020A0007B6931E07B681B681C4A93422CD100237A
:1020B0003B61184B1B6B174A43F002031363154B2C
:1020C0001B6B03F002033B613B694FF44063FB6110
:1020D00012233B6201237B620323BB620423FB6266
:1020E00007F11C0319460C4801F096F90023FB6028
:1020F000084B1B6C074A43F480031364054B1B6CAD
:1021000003F48003FB60FB6800BF3037BD4680BD31
:1021100000540040003802400004024000580040D3
:1021200080B596B000AF786007F1440300221A60D2
:102130005A609A60DA601A6107F1140330220021B4
:10214000184626F06FFD7B681B683A4A93426DD1B2
:1021500001237B613223BB610223FB6107F114037E
:10216000184604F027F90346002B01D0FFF70CFFB7
:1021700000233B61304B1B6C2F4A43F480431364B4
:102180002D4B1B6C03F480433B613B690023FB60D8
:10219000294B1B6B284A43F002031363264B1B6B2E
:1021A00003F00203FB60FB684FF430437B640223BF
:1021B000BB640023FB6403233B6505237B6507F1B8
:1021C000440319461D4801F027F91D4B1D4A1A60AA
:1021D0001B4B00225A601A4B40229A60184B002277
:1021E000DA60174B4FF480621A61154B4FF40062AE
:1021F0005A61134B4FF400529A61114B4FF48072A5
:10220000DA610F4B4FF400321A620D4B00225A6212
:102210000B4800F021FD0346002B01D0FFF7B4FE70
:102220007B68074A9A63064A7B68936300BF583706
:10223000BD4680BD00380040003802400004024026
:10224000AC0300207060024080B58AB000AF7860B7
:1022500007F1140300221A605A609A60DA601A616A
:102260007B681B68194A93422BD100233B61184BB2
:102270005B6C174A43F480535364154B5B6C03F457
:1022800080533B613B690023FB60114B1B6B104A81
:1022900043F0010313630E4B1B6B03F00103FB6060
:1022A000FB68E0237B610223BB610023FB61032306
:1022B0003B6205237B6207F114031946054801F0D0
:1022C000ABF800BF2837BD4680BD00BF00300140DD
:1022D000003802400000024080B584B000AF786052
:1022E0007B681B68B3F1804F15D10023FB600C4B5A
:1022F0001B6C0B4A43F001031364094B1B6C03F086
:102300000103FB60FB68002200211C2000F050FC50
:102310001C2000F069FC00BF1037BD4680BD00BF27
:102320000038024080B58CB000AF78600023BB62FB
:1023300000237B620023BB602F4B5B6C2E4A43F46F
:10234000802353642C4B5B6C03F48023BB60BB681D
:1023500007F10C0207F110031146184603F0F8FFCD
:1023600003F0E2FF03465B00BB62BB6A234AA2FBA9
:1023700003239B0C013B7B62214B224A1A60204BBA
:1023800040F2E732DA601E4A7B6A53601C4B00223F
:102390001A611B4B00229A60194B00229A6118485F
:1023A00004F058FE034687F82F3097F82F30002BA3
:1023B0001BD1134804F09EFE034687F82F3097F890
:1023C0002F30002B11D11A2000F00EFC7B680F2B50
:1023D00008D8002279681A2000F0EAFB0A4A7B68D4
:1023E000136002E0012387F82F3097F82F3018464A
:1023F0003037BD4680BD00BF0038024083DE1B433E
:10240000C4040020004801403400002080B400AF24
:10241000FEE780B400AFFEE780B400AFFEE780B413
:1024200000AFFEE780B400AFFEE780B400AF00BFAE
:10243000BD465DF8047B704780B400AF00BFBD4669
:102440005DF8047B704780B400AF00BFBD465DF807
:10245000047B704780B500AF0C4B1B88002B05D068
:102460000A4B1B88013B9AB2084B1A80084B1B8809
:10247000002B05D0064B1B88013B9AB2044B1A80F7
:1024800000F09AFA00F0BEFB00BF80BD5C010020A6
:102490005E01002080B500AF024800F053FD00BF90
:1024A00080BD00BFAC03002080B500AF4FF40070CA
:1024B00001F078F900BF80BD80B500AF024804F09C
:1024C00089FE00BF80BD00BFC404002080B500AFFE
:1024D000024804F07FFE00BF80BD00BF64040020FE
:1024E00080B500AF4FF4806001F05CF94FF40060FC
:1024F00001F058F94FF4805001F054F900BF80BD4D
:1025000080B400AF01231846BD465DF8047B7047D8
:1025100080B582B000AF7860396026F0DFFB0346FB
:1025200016221A604FF0FF3318460837BD4680BDAB
:1025300080B582B000AF78604FF0FF317868FFF768
:10254000E7FFFEE780B586B000AFF860B9607A605B
:1025500000237B610AE0AFF300800146BB685A1C90
:10256000BA60CAB21A707B6901337B617A697B6891
:102570009A42F0DB7B6818461837BD4680BD80B4B0
:1025800083B000AF78604FF0FF3318460C37BD467C
:102590005DF8047B704780B483B000AF7860396029
:1025A0003B684FF400525A60002318460C37BD4672
:1025B0005DF8047B704780B483B000AF786001237E
:1025C00018460C37BD465DF8047B704780B485B073
:1025D00000AFF860B9607A60002318461437BD4632
:1025E0005DF8047B7047000080B586B000AF78606E
:1025F000144A154BD31A7B617B693B61134B1B68F3
:10260000002B02D1114B124A1A60104B1A687B68DA
:1026100013443A699A4207D226F060FB03460C2223
:102620001A604FF0FF3309E0084B1B68FB60074B53
:102630001A687B681344054A1360FB68184618370C
:10264000BD4680BD00000320004000000C050020B6
:10265000F8ED002080B400AF064BD3F88830054A6F
:1026600043F47003C2F8883000BFBD465DF8047BB8
:10267000704700BF00ED00E080B400AF054B0022C2
:102680001A60054B00221A6000BFBD465DF8047B4E
:10269000704700BF50AF002054AF002080B500AF9E
:1026A00000220649064807F08BFD0346002B02D0A6
:1026B000044826F077FA00BF80BD00BFDC9F020807
:1026C00010050020E09F020880B59CB000AF786044
:1026D0000023FB667B681946184826F047FB17491C
:1026E000174826F0F9F901221449164807F0AEFD03
:1026F00003461A46144B1A7007F10C01134B2C2297
:10270000104807F06FFF03461A460F4B1A7007F187
:102710000C030433FB66FB6E1B68BB60BB687B6409
:102720007B6C0B4A13600A4B1A68084B1B68D31A60
:10273000084A136000BF7037BD4680BD5CAF002003
:10274000FC9F0208481500207825002054AF002087
:102750007C25002050AF002080B582B000AF7860AB
:102760000D4B44F2E8420D490D4807F03BFF0D4B7D
:102770001A68094B1B68D31A0A4A136042F2742282
:102780000649786802F0A0F903461A46064B1A700B
:1027900000BF0837BD4680BD54AF00208025002013
:1027A0004815002050AF002059AF002080B500AF81
:1027B000324B1B78DBB2032B5ED801A252F823F018
:1027C00077280008D1270008152800085928000894
:1027D0002B4B00221A602A4B44F2E84229492A482E
:1027E00007F000FF294B1B6844F2E842934207D9E7
:1027F000264B1A68224B1B68D31A244A136005E043
:10280000224B00221A601D4B03221A701B4B002220
:102810001A7031E01A4B00221A60194B44F2E84258
:102820001B49194807F0DEFE184B1B6844F2E842CA
:10283000934207D9154B1A68114B1B68D31A134AD8
:10284000136005E0114B00221A600C4B03221A7032
:102850000A4B00221A700FE00E4800F01FF80A48D9
:1028600008F09DF8FFF708FF0B4B01221A70034B8D
:1028700000221A7000E000BF00BF80BD5AAF0020E8
:1028800054AF0020802500204815002050AF0020C4
:10289000686A00206403002058AF002080B582B031
:1028A00000AF7860786802F0ADFA00BF0837BD4627
:1028B00080BD80B582B000AF7860786802F0ACF976
:1028C00000BF0837BD4680BD80B582B000AF7860DC
:1028D000786802F003FA00BF0837BD4680BD0000EB
:1028E00080B483B000AF7860044B01221A7000BF3F
:1028F0000C37BD465DF8047B704700BF5AAF00201F
:1029000080B483B000AF7860044B02221A7000BF1D
:102910000C37BD465DF8047B704700BF5AAF0020FE
:10292000DFF834D00D480E490E4A002302E0D45897
:10293000C4500433C4188C42F9D30B4A0B4C002307
:1029400001E013600432A242FBD3FFF783FE26F0BE
:10295000CBF9FEF7A1FF7047000003200000002024
:102960003801002090E7080838010020F8ED002029
:10297000FEE7000080B500AF0E4B1B680D4A43F424
:10298000007313600B4B1B680A4A43F480631360A7
:10299000084B1B68074A43F480731360032000F060
:1029A000FCF80F20FFF7BEFCFFF7F4FA00231846EF
:1029B00080BD00BF003C024080B400AF064B1B78D6
:1029C0001A46064B1B681344044A136000BFBD46F9
:1029D0005DF8047B704700BF3800002090AF0020F6
:1029E00080B400AF034B1B681846BD465DF8047BFE
:1029F000704700BF90AF002080B584B000AF786012
:102A0000FFF7EEFFB8607B68FB60FB68B3F1FF3F48
:102A100005D00A4B1B781A46FB681344FB6000BFC5
:102A2000FFF7DEFF0246BB68D31AFA689A42F7D86E
:102A300000BF00BF1037BD4680BD00BF380000207A
:102A400080B485B000AF78607B6803F00703FB605B
:102A50000C4BDB68BB60BA684FF6FF031340BB60EA
:102A6000FB681A02BB68134343F0BF6343F40033AF
:102A7000BB60044ABB68D36000BF1437BD465DF835
:102A8000047B704700ED00E080B400AF044BDB68CE
:102A90001B0A03F007031846BD465DF8047B704728
:102AA00000ED00E080B483B000AF0346FB7197F9FE
:102AB0000730002B0BDBFB7903F01F02074997F966
:102AC00007305B09012000FA02F241F8232000BF21
:102AD0000C37BD465DF8047B704700BF00E100E0A5
:102AE00080B483B000AF03463960FB7197F90730BB
:102AF000002B0ADB3B68DAB20C4997F90730120168
:102B0000D2B20B4483F800230AE03B68DAB20849EA
:102B1000FB7903F00F03043B1201D2B20B441A7687
:102B200000BF0C37BD465DF8047B704700E100E054
:102B300000ED00E080B489B000AFF860B9607A6061
:102B4000FB6803F00703FB61FB69C3F10703042B78
:102B500028BF0423BB61FB690433062B02D9FB6940
:102B6000033B00E000237B614FF0FF32BB6902FAB8
:102B700003F3DA43BB681A407B699A404FF0FF3198
:102B80007B6901FA03F3D9437B680B401343184672
:102B90002437BD465DF8047B704780B582B000AF36
:102BA00078607868FFF74CFF00BF0837BD4680BDEE
:102BB00080B586B000AF0346B9607A60FB7300232E
:102BC0007B61FFF761FF78617A68B9687869FFF720
:102BD000B1FF024697F90F3011461846FFF780FF04
:102BE00000BF1837BD4680BD80B582B000AF034638
:102BF000FB7197F907301846FFF754FF00BF0837FD
:102C0000BD4680BD80B500AF00F002F800BF80BDBA
:102C100080B400AF00BFBD465DF8047B704780B54F
:102C200082B000AF78607B68002B01D101230EE0F9
:102C30007B685B79DBB2002B05D17B6800221A71BF
:102C40007868FFF7CFF97B6801225A710023184694
:102C50000837BD4680BD000080B586B000AF786003
:102C600000237B61FFF7BCFE38617B68002B01D13C
:102C7000012399E07B68022283F835207B680022DB
:102C800083F834207B681B681A687B681B6822F015
:102C900001021A600FE0FFF7A3FE02463B69D31A58
:102CA000052B08D97B6820225A657B68032283F8AC
:102CB0003520032378E07B681B681B6803F0010361
:102CC000002BE8D17B681B681B687B617A69384BF5
:102CD00013407B617B685A687B689B681A437B68FA
:102CE000DB681A437B681B691A437B685B691A437C
:102CF0007B689B691A437B68DB691A437B681B6AA4
:102D000013437A6913437B617B685B6A042B07D1A9
:102D10007B68DA6A7B681B6B13437A6913437B61B8
:102D20007B681B687A691A607B681B685B697B61DA
:102D30007B6923F007037B617B685B6A7A691343D5
:102D40007B617B685B6A042B17D17B689B6A7A691D
:102D500013437B617B68DB6A002B0ED0786800F040
:102D6000DFFA0346002B08D07B6840225A657B6857
:102D7000012283F83520012316E07B681B687A69FD
:102D80005A61786800F096FA0346FB607B68DB6D59
:102D90003F229A40FB689A607B6800225A657B68F4
:102DA000012283F83520002318461837BD4680BD20
:102DB0003F8010F080B586B000AFF860B9607A60EF
:102DC0003B600023FB75FB689B6D3B61FB6893F8E0
:102DD0003430012B01D1022340E0FB68012283F84B
:102DE0003420FB6893F83530DBB2012B2FD1FB6820
:102DF000022283F83520FB6800225A653B687A6816
:102E0000B968F86800F028FAFB68DB6D3F229A4049
:102E10003B699A60FB681B681A68FB681B6842F094
:102E200016021A60FB681B6C002B07D0FB681B683E
:102E30001A68FB681B6842F008021A60FB681B688E
:102E40001A68FB681B6842F001021A6005E0FB6823
:102E5000002283F834200223FB75FB7D18461837C7
:102E6000BD4680BD80B584B000AF78607B689B6D47
:102E7000FB60FFF7B5FDB8607B6893F83530DBB2D7
:102E8000022B08D07B6880225A657B68002283F879
:102E90003420012352E07B681B681A687B681B683A
:102EA00022F016021A607B681B685A697B681B68EF
:102EB00022F080025A617B681B6C002B03D17B6877
:102EC0009B6C002B07D07B681B681A687B681B68AB
:102ED00022F008021A607B681B681A687B681B680E
:102EE00022F001021A6013E0FFF77AFD0246BB6888
:102EF000D31A052B0CD97B6820225A657B680322E4
:102F000083F835207B68002283F83420032315E002
:102F10007B681B681B6803F00103002BE4D17B680E
:102F2000DB6D3F229A40FB689A607B68012283F840
:102F300035207B68002283F83420002318461037A0
:102F4000BD4680BD80B586B000AF78600023BB6011
:102F50008E4B1B688E4AA2FB03239B0A7B617B6816
:102F60009B6D3B613B691B68FB607B68DB6D0822E6
:102F70009A40FB681340002B1AD07B681B681B68C3
:102F800003F00403002B13D07B681B681A687B686E
:102F90001B6822F004021A607B68DB6D08229A40ED
:102FA0003B699A607B685B6D43F001027B685A6500
:102FB0007B68DB6D01229A40FB681340002B12D026
:102FC0007B681B685B6903F08003002B0BD07B6878
:102FD000DB6D01229A403B699A607B685B6D43F030
:102FE00002027B685A657B68DB6D04229A40FB68AD
:102FF0001340002B12D07B681B681B6803F0020390
:10300000002B0BD07B68DB6D04229A403B699A60F1
:103010007B685B6D43F004027B685A657B68DB6DFF
:1030200010229A40FB681340002B43D07B681B683A
:103030001B6803F00803002B3CD07B68DB6D10227B
:103040009A403B699A607B681B681B6803F4802385
:10305000002B18D07B681B681B6803F40023002B2F
:1030600008D17B681B6C002B24D07B681B6C7868B4
:1030700098471FE07B689B6C002B1BD07B689B6C88
:103080007868984716E07B681B681B6803F48073B8
:10309000002B07D17B681B681A687B681B6822F0CD
:1030A00008021A607B681B6C002B03D07B681B6CCA
:1030B000786898477B68DB6D20229A40FB68134054
:1030C000002B00F08F807B681B681B6803F01003E7
:1030D000002B00F087807B68DB6D20229A403B69E3
:1030E0009A607B6893F83530DBB2052B36D17B686C
:1030F0001B681A687B681B6822F016021A607B68DE
:103100001B685A697B681B6822F080025A617B68E1
:103110001B6C002B03D17B689B6C002B07D07B685A
:103120001B681A687B681B6822F008021A607B68BB
:10313000DB6D3F229A403B699A607B68012283F8ED
:1031400035207B68002283F834207B681B6D002BC0
:103150007ED07B681B6D7868984779E07B681B6838
:103160001B6803F48023002B1DD07B681B681B6841
:1031700003F40023002B0DD17B685B6C002B31D056
:103180007B685B6C786898472CE000BF30000020BB
:10319000B5814E1B7B68DB6B002B23D07B68DB6B20
:1031A000786898471EE07B681B681B6803F480738F
:1031B000002B0FD17B681B681A687B681B6822F0A4
:1031C00010021A607B68012283F835207B68002298
:1031D00083F834207B68DB6B002B03D07B68DB6BD0
:1031E000786898477B685B6D002B32D07B685B6D9D
:1031F00003F00103002B22D07B68052283F83520E1
:103200007B681B681A687B681B6822F001021A60E1
:10321000BB680133BB607A699A4207D37B681B683D
:103220001B6803F00103002BF2D100E000BF7B68B4
:10323000012283F835207B68002283F834207B68E4
:10324000DB6C002B05D07B68DB6C7868984700E06E
:1032500000BF1837BD4680BD80B485B000AFF860B0
:10326000B9607A603B60FB681B681A68FB681B6882
:1032700022F480221A60FB681B683A685A60FB6877
:103280009B68402B08D1FB681B687A689A60FB68D2
:103290001B68BA68DA6007E0FB681B68BA689A6066
:1032A000FB681B687A68DA6000BF1437BD465DF8BA
:1032B000047B704780B485B000AF78607B681B6882
:1032C000DBB2103B144AA2FB03231B09FB60134A29
:1032D000FB6813441B781A467B68DA65FB68032B8E
:1032E00009D97B681B6823F47F7323F003031A1D3D
:1032F0007B689A6507E07B681B6823F47F7323F083
:1033000003037A6893657B689B6D18461437BD4646
:103310005DF8047B704700BFABAAAAAA14B20208EA
:1033200080B485B000AF78600023FB737B689B6A34
:10333000BB607B689B69002B1FD1BB68032B56D8F1
:1033400001A252F823F000BF593300086B33000884
:1033500059330008EF3300087B68DB6A03F08073A1
:10336000002B46D00123FB7343E07B68DB6AB3F19B
:10337000C07F40D10123FB733DE07B689B69B3F5BF
:10338000005F21D1BB68032B37D801A252F823F08C
:10339000A1330008A7330008A1330008B93300089F
:1033A0000123FB7330E07B68DB6A03F08073002B42
:1033B00025D00123FB7322E07B68DB6AB3F1C07F79
:1033C0001FD10123FB731CE0BB68022B03D9BB6830
:1033D000032B03D018E00123FB7315E07B68DB6A45
:1033E00003F08073002B0ED00123FB730BE000BFB2
:1033F0000AE000BF08E000BF06E000BF04E000BF35
:1034000002E000BF00E000BFFB7B18461437BD465A
:103410005DF8047B704700BF80B489B000AF78606E
:10342000396000237B6100233B610023BB610023E3
:10343000FB6177E10122FB6902FA03F37B613B68E0
:103440001B687A6913403B613A697B699A4240F094
:1034500066813B685B6803F00303012B05D03B6882
:103460005B6803F00303022B30D17B689B68BB6170
:10347000FB695B00032202FA03F3DB43BA691340E2
:10348000BB613B68DA68FB695B0002FA03F3BA6967
:103490001343BB617B68BA699A607B685B68BB61F8
:1034A0000122FB6902FA03F3DB43BA691340BB61F3
:1034B0003B685B681B0903F00102FB6902FA03F336
:1034C000BA691343BB617B68BA695A603B685B6841
:1034D00003F00303032B17D07B68DB68BB61FB6938
:1034E0005B00032202FA03F3DB43BA691340BB61BA
:1034F0003B689A68FB695B0002FA03F3BA691343FD
:10350000BB617B68BA69DA603B685B6803F0030300
:10351000022B23D1FB69DA087B68083253F822308A
:10352000BB61FB6903F007039B000F2202FA03F360
:10353000DB43BA691340BB613B681A69FB6903F05E
:1035400007039B0002FA03F3BA691343BB61FB69EB
:10355000DA087B680832B96943F822107B681B6877
:10356000BB61FB695B00032202FA03F3DB43BA6928
:103570001340BB613B685B6803F00302FB695B00BF
:1035800002FA03F3BA691343BB617B68BA691A6034
:103590003B685B6803F44033002B00F0C0800023DD
:1035A000FB60664B5B6C654A43F480435364634B3A
:1035B0005B6C03F48043FB60FB68614AFB699B081A
:1035C000023352F82330BB61FB6903F003039B0015
:1035D0000F2202FA03F3DB43BA691340BB617B6835
:1035E000584A934237D07B68574A934231D07B6820
:1035F000564A93422BD07B68554A934225D07B682C
:10360000544A93421FD07B68534A934219D07B6837
:10361000524A934213D07B68514A93420DD07B6843
:10362000504A934207D07B684F4A934201D1092305
:1036300012E00A2310E008230EE007230CE0062323
:103640000AE0052308E0042306E0032304E0022344
:1036500002E0012300E00023FA6902F00302920075
:103660009340BA691343BB613549FB699B08023338
:10367000BA6941F823203D4B9B68BB613B69DB4342
:10368000BA691340BB613B685B6803F48013002B8D
:1036900003D0BA693B691343BB61344ABB69936089
:1036A000324BDB68BB613B69DB43BA691340BB61EA
:1036B0003B685B6803F40013002B03D0BA693B69D5
:1036C0001343BB61294ABB69D360284B5B68BB616C
:1036D0003B69DB43BA691340BB613B685B6803F439
:1036E0000033002B03D0BA693B691343BB611F4A07
:1036F000BB6953601D4B1B68BB613B69DB43BA6907
:103700001340BB613B685B6803F48033002B03D03C
:10371000BA693B691343BB61144ABB691360FB6917
:103720000133FB61FB690F2B7FF684AE00BF00BF46
:103730002437BD465DF8047B704700BF0038024067
:10374000003801400000024000040240000802402E
:10375000000C024000100240001402400018024019
:10376000001C02400020024000240240003C0140B6
:1037700080B483B000AF78600B467B8013467B70CB
:103780007B78002B03D07A887B689A6103E07B8882
:103790001A047B689A6100BF0C37BD465DF8047B54
:1037A0007047000080B582B000AF0346FB80084B35
:1037B0005A69FB881340002B06D0054AFB885361E9
:1037C000FB881846FEF79EFB00BF0837BD4680BD4C
:1037D000003C014080B584B000AF78607B68002B6E
:1037E00001D101232BE17B6893F83D30DBB2002B44
:1037F00006D17B68002283F83C207868FEF714FC31
:103800007B68242283F83D207B681B681A687B68EC
:103810001B6822F001021A607B681B681A687B68CB
:103820001B6842F400421A607B681B681A687B6858
:103830001B6822F400421A6002F062FDF8607B68A7
:103840005B68814A934207D8FB68804A934294BFE1
:1038500001230023DBB206E0FB687D4A934294BF5C
:1038600001230023DBB2002B01D00123E7E0FB683A
:10387000784AA2FB03239B0CBB607B681B685B68D8
:1038800023F03F017B681B68BA680A435A607B6873
:103890001B681B6A23F03F017B685B686A4A93429E
:1038A00002D8BB68013309E0BB684FF4967202FB93
:1038B00003F3694AA2FB03239B0901337A68126868
:1038C0000B4313627B681B68DB6923F44F4222F0D1
:1038D000FF027B685B685C498B4219D8FB68591E04
:1038E0007B685B685B00B1FBF3F3591C40F6FC732B
:1038F0000B40002B0AD0FB68591E7B685B685B009D
:10390000B1FBF3F30133C3F30B0351E004234FE0A6
:103910007B689B68002B11D1FB68581E7B68596837
:103920000B465B000B44B0FBF3F30133C3F30B0313
:10393000002B0CBF01230023DBB212E0FB68581EF2
:103940007B6859680B469B000B4499000B44B0FB05
:10395000F3F30133C3F30B03002B0CBF012300234C
:10396000DBB2002B01D0012322E07B689B68002B97
:103970000ED1FB68581E7B6859680B465B000B44F0
:10398000B0FBF3F30133C3F30B0343F400430FE045
:10399000FB68581E7B6859680B469B000B449900D6
:1039A0000B44B0FBF3F30133C3F30B0343F4404385
:1039B000796809681343CB617B681B681B6823F037
:1039C000C0017B68DA697B681B6A1A437B681B68E5
:1039D0000A431A607B681B689B6823F4034323F047
:1039E000FF037A6811697A68D26811437A681268AD
:1039F0000B4393607B681B68DB6823F0FF017B68E7
:103A00005A697B689B691A437B681B680A43DA60C2
:103A10007B681B681A687B681B6842F001021A60A9
:103A20007B6800221A647B68202283F83D207B6833
:103A300000221A637B68002283F83E200023184688
:103A40001037BD4680BD00BFA08601007F841E00E8
:103A5000FF083D0083DE1B43D34D621080B588B064
:103A600002AFF860084611461A4603467B810B46B2
:103A70003B811346FB80FEF7B3FF7861FB6893F848
:103A80003D30DBB2202B40F0D9807B6900931923B5
:103A900001226D49F86800F07FFC0346002B01D03D
:103AA0000223CCE0FB6893F83C30012B01D10223C8
:103AB000C5E0FB68012283F83C20FB681B681B689B
:103AC00003F00103012B07D0FB681B681A68FB6831
:103AD0001B6842F001021A60FB681B681A68FB68E9
:103AE0001B6822F400621A60FB68212283F83D20E3
:103AF000FB68402283F83E20FB6800221A64FB68C2
:103B00003A6A5A62FB68BA8C5A85FB685B8D9AB236
:103B1000FB681A85FB684D4ADA62F8883A89798928
:103B20007B690193BB6A00930346F86800F0B6FA1C
:103B30000346002B52D0012381E07A69B96AF86804
:103B400000F000FD0346002B0DD0FB681B6C042B1E
:103B500007D1FB681B681A68FB681B6842F4007297
:103B60001A6001236BE0FB685B6A1A78FB681B68CC
:103B70001A61FB685B6A5A1CFB685A62FB681B8D02
:103B8000013B9AB2FB681A85FB685B8D9BB2013BD7
:103B90009AB2FB685A85FB681B685B6903F00403F3
:103BA000042B1BD1FB681B8D002B17D0FB685B6AB5
:103BB0001A78FB681B681A61FB685B6A5A1CFB6811
:103BC0005A62FB681B8D013B9AB2FB681A85FB6841
:103BD0005B8D9BB2013B9AB2FB685A85FB681B8DDB
:103BE000002BAAD17A69B96AF86800F0ECFC0346A8
:103BF000002B0DD0FB681B6C042B07D1FB681B68E6
:103C00001A68FB681B6842F400721A60012316E010
:103C1000FB681B681A68FB681B6842F400721A6034
:103C2000FB68202283F83D20FB68002283F83E20B9
:103C3000FB68002283F83C20002300E002231846A2
:103C40001837BD4680BD00BF020010000000FFFF16
:103C500080B58CB002AFF860084611461A4603469C
:103C60007B810B463B811346FB80FEF7B9FE7862F1
:103C7000FB6893F83D30DBB2202B40F008827B6A72
:103C80000093192301227B49F86800F085FB034665
:103C9000002B01D00223FBE1FB6893F83C30012BA1
:103CA00001D10223F4E1FB68012283F83C20FB6888
:103CB0001B681B6803F00103012B07D0FB681B681E
:103CC0001A68FB681B6842F001021A60FB681B68F7
:103CD0001A68FB681B6822F400621A60FB682222E3
:103CE00083F83D20FB68402283F83E20FB680022D9
:103CF0001A64FB683A6B5A62FB68BA8E5A85FB6895
:103D00005B8D9AB2FB681A85FB685B4ADA62F888B9
:103D10003A8979897B6A0193BB6B00930346F86803
:103D200000F052FA0346002B01D00123B0E1FB68FA
:103D30001B8D002B13D100233B62FB681B685B6962
:103D40003B62FB681B689B693B623B6AFB681B68C4
:103D50001A68FB681B6842F400721A6084E1FB6811
:103D60001B8D012B1BD1FB681B681A68FB681B6845
:103D700022F480621A600023FB61FB681B685B69A8
:103D8000FB61FB681B689B69FB61FB69FB681B6847
:103D90001A68FB681B6842F400721A6064E1FB68F1
:103DA0001B8D022B1BD1FB681B681A68FB681B6804
:103DB00022F480621A60FB681B681A68FB681B6843
:103DC00042F400621A600023BB61FB681B685B69F8
:103DD000BB61FB681B689B69BB61BB6944E1002355
:103DE0007B61FB681B685B697B61FB681B689B6987
:103DF0007B617B6938E1FB681B8D032B00F2F1804E
:103E0000FB681B8D012B23D17A6AB96BF86800F02F
:103E10001BFC0346002B01D0012339E1FB681B6822
:103E20001A69FB685B6AD2B21A70FB685B6A5A1C3B
:103E3000FB685A62FB681B8D013B9AB2FB681A85CE
:103E4000FB685B8D9BB2013B9AB2FB685A850BE124
:103E5000FB681B8D022B4ED17B6A0093BB6B00224B
:103E60000649F86800F098FA0346002B08D00123B1
:103E70000EE100BF020010000000FFFF040001007F
:103E8000FB681B681A68FB681B6842F400721A60C2
:103E9000FB681B681A69FB685B6AD2B21A70FB6820
:103EA0005B6A5A1CFB685A62FB681B8D013B9AB225
:103EB000FB681A85FB685B8D9BB2013B9AB2FB687D
:103EC0005A85FB681B681A69FB685B6AD2B21A7074
:103ED000FB685B6A5A1CFB685A62FB681B8D013BDE
:103EE0009AB2FB681A85FB685B8D9BB2013B9AB264
:103EF000FB685A85B8E07B6A0093BB6B0022664979
:103F0000F86800F049FA0346002B01D00123BFE016
:103F1000FB681B681A68FB681B6822F480621A60E1
:103F2000FB681B681A69FB685B6AD2B21A70FB688F
:103F30005B6A5A1CFB685A62FB681B8D013B9AB294
:103F4000FB681A85FB685B8D9BB2013B9AB2FB68EC
:103F50005A857B6A0093BB6B00224F49F86800F0DA
:103F60001BFA0346002B01D0012391E0FB681B687C
:103F70001A68FB681B6842F400721A60FB681B68D1
:103F80001A69FB685B6AD2B21A70FB685B6A5A1CDA
:103F9000FB685A62FB681B8D013B9AB2FB681A856D
:103FA000FB685B8D9BB2013B9AB2FB685A85FB684C
:103FB0001B681A69FB685B6AD2B21A70FB685B6A9D
:103FC0005A1CFB685A62FB681B8D013B9AB2FB6866
:103FD0001A85FB685B8D9BB2013B9AB2FB685A85E0
:103FE00042E07A6AB96BF86800F02EFB0346002BBA
:103FF00001D001234CE0FB681B681A69FB685B6A0F
:10400000D2B21A70FB685B6A5A1CFB685A62FB6882
:104010001B8D013B9AB2FB681A85FB685B8D9BB2D6
:10402000013B9AB2FB685A85FB681B685B6903F029
:104030000403042B18D1FB681B681A69FB685B6AD0
:10404000D2B21A70FB685B6A5A1CFB685A62FB6842
:104050001B8D013B9AB2FB681A85FB685B8D9BB296
:10406000013B9AB2FB685A85FB681B8D002B7FF4DD
:10407000C2AEFB68202283F83D20FB68002283F853
:104080003E20FB68002283F83C20002300E002234E
:1040900018462837BD4680BD0400010080B588B0B1
:1040A00002AFF860084611461A4603467B810B466C
:1040B0003B811346FB80FB681B681A68FB681B6822
:1040C00042F480721A607B6A00933B6A00224FF0D0
:1040D0000111F86800F060F90346002B0DD0FB6871
:1040E0001B681B6803F48073B3F5807F03D1FB6802
:1040F0004FF400721A6403235FE07B89DBB21A4637
:10410000FB681B6802F0FE021A617B6A3A6A2D495D
:10411000F86800F098F90346002B01D001234CE029
:1041200000237B61FB681B685B697B61FB681B6824
:104130009B697B617B697A6A396AF86800F002FAE8
:104140000346002B0DD0FB681B6C042B07D1FB68CA
:104150001B681A68FB681B6842F400721A6001232E
:104160002BE0FB88012B05D13B89DAB2FB681B6889
:104170001A6121E03B891B0A9BB2DAB2FB681B681B
:104180001A617A6A396AF86800F0DCF90346002B94
:104190000DD0FB681B6C042B07D1FB681B681A68E9
:1041A000FB681B6842F400721A60012305E03B893A
:1041B000DAB2FB681B681A61002318461837BD463F
:1041C00080BD00BF0200010080B588B002AFF8607A
:1041D000084611461A4603467B810B463B8113462F
:1041E000FB80FB681B681A68FB681B6842F48062EE
:1041F0001A60FB681B681A68FB681B6842F48072CF
:104200001A607B6A00933B6A00224FF00111F86844
:1042100000F0C2F80346002B0DD0FB681B681B683A
:1042200003F48073B3F5807F03D1FB684FF4007211
:104230001A640323AAE07B89DBB21A46FB681B6879
:1042400002F0FE021A617B6A3A6A5249F86800F08D
:10425000FAF80346002B01D0012397E000237B618D
:10426000FB681B685B697B61FB681B689B697B6102
:104270007B697A6A396AF86800F064F90346002BB2
:104280000DD0FB681B6C042B07D1FB681B681A68F8
:10429000FB681B6842F400721A60012376E0FB8819
:1042A000012B05D13B89DAB2FB681B681A6121E05A
:1042B0003B891B0A9BB2DAB2FB681B681A617A6AF7
:1042C000396AF86800F03EF90346002B0DD0FB6810
:1042D0001B6C042B07D1FB681B681A68FB681B6802
:1042E00042F400721A60012350E03B89DAB2FB68A5
:1042F0001B681A617A6A396AF86800F023F9034684
:10430000002B0DD0FB681B6C042B07D1FB681B68CE
:104310001A68FB681B6842F400721A60012335E0DA
:10432000FB681B681A68FB681B6842F480721A609D
:104330007B6A00933B6A00224FF00111F86800F09D
:104340002BF80346002B0DD0FB681B681B6803F499
:104350008073B3F5807F03D1FB684FF400721A6459
:10436000032313E07B89DBB243F00103DAB2FB687D
:104370001B681A617B6A3A6A0649F86800F063F8BC
:104380000346002B01D0012300E000231846183714
:10439000BD4680BD0200010080B584B000AFF8606A
:1043A000B9603B601346FB7125E03B68B3F1FF3F0A
:1043B00021D0FEF715FB0246BB69D31A3A689A4230
:1043C00002D33B68002B16D1FB6800221A63FB68FE
:1043D000202283F83D20FB68002283F83E20FB6802
:1043E0001B6C43F02002FB681A64FB68002283F810
:1043F0003C20012323E0BB681B0CDBB2012B0DD159
:10440000FB681B685B69DA43BB6813409BB2002BF7
:104410000CBF01230023DBB21A460CE0FB681B68CB
:104420009B69DA43BB6813409BB2002B0CBF01238E
:104430000023DBB21A46FB799A42B6D00023184615
:104440001037BD4680BD80B584B000AFF860B9605C
:104450007A603B6051E0FB681B685B6903F4806332
:10446000B3F5806F23D1FB681B681A68FB681B6873
:1044700042F400721A60FB681B686FF480625A6134
:10448000FB6800221A63FB68202283F83D20FB684A
:10449000002283F83E20FB681B6C43F00402FB689B
:1044A0001A64FB68002283F83C20012346E07B6805
:1044B000B3F1FF3F21D0FEF793FA02463B68D31ACF
:1044C0007A689A4202D37B68002B16D1FB680022DF
:1044D0001A63FB68202283F83D20FB68002283F8E2
:1044E0003E20FB681B6C43F02002FB681A64FB68EB
:1044F000002283F83C20012320E0BB681B0CDBB2C8
:10450000012B0CD1FB681B685B69DA43BB68134065
:104510009BB2002B14BF01230023DBB20BE0FB682E
:104520001B689B69DA43BB6813409BB2002B14BF26
:1045300001230023DBB2002B8DD100231846103756
:10454000BD4680BD80B584B000AFF860B9607A60C8
:104550002DE0F86800F0CEF80346002B01D00123CF
:104560002DE0BB68B3F1FF3F21D0FEF739FA0246D8
:104570007B68D31ABA689A4202D3BB68002B16D163
:10458000FB6800221A63FB68202283F83D20FB6849
:10459000002283F83E20FB681B6C43F02002FB687E
:1045A0001A64FB68002283F83C20012307E0FB68C3
:1045B0001B685B6903F08003802BCAD10023184677
:1045C0001037BD4680BD80B584B000AFF860B960DB
:1045D0007A602DE0F86800F08DF80346002B01D0DA
:1045E00001232DE0BB68B3F1FF3F21D0FEF7F8F9BE
:1045F00002467B68D31ABA689A4202D3BB68002B82
:1046000016D1FB6800221A63FB68202283F83D2044
:10461000FB68002283F83E20FB681B6C43F02002FD
:10462000FB681A64FB68002283F83C20012307E042
:10463000FB681B685B6903F00403042BCAD10023E9
:1046400018461037BD4680BD80B584B000AFF86015
:10465000B9607A6042E0FB681B685B6903F0100395
:10466000102B19D1FB681B686FF010025A61FB68B0
:1046700000221A63FB68202283F83D20FB68002299
:1046800083F83E20FB681A6CFB681A64FB68002202
:1046900083F83C20012329E0FEF7A2F902467B685B
:1046A000D31ABA689A4202D3BB68002B16D1FB68B2
:1046B00000221A63FB68202283F83D20FB68002259
:1046C00083F83E20FB681B6C43F02002FB681A64F1
:1046D000FB68002283F83C20012307E0FB681B688D
:1046E0005B6903F04003402BB5D100231846103717
:1046F000BD4680BD80B483B000AF78607B681B6826
:104700005B6903F48063B3F5806F1BD17B681B6822
:104710006FF480625A617B6800221A637B682022F2
:1047200083F83D207B68002283F83E207B681B6C69
:1047300043F004027B681A647B68002283F83C2003
:10474000012300E0002318460C37BD465DF8047BCA
:10475000704780B483B000AF786039607B6893F8AD
:104760003D30DBB2202B29D17B68242283F83D2009
:104770007B681B681A687B681B6822F001021A605C
:104780007B681B685A6A7B681B6822F010025A62B9
:104790007B681B68596A7B681B683A680A435A62DF
:1047A0007B681B681A687B681B6842F001021A600C
:1047B0007B68202283F83D20002300E00223184676
:1047C0000C37BD465DF8047B704780B485B000AF00
:1047D000786039600023FB817B6893F83D30DBB261
:1047E000202B2AD17B68242283F83D207B681B681C
:1047F0001A687B681B6822F001021A607B681B68DC
:104800005B6AFB81FB8923F00F03FB813B689AB253
:10481000FB891343FB817B681B68FA895A627B68BA
:104820001B681A687B681B6842F001021A607B688B
:10483000202283F83D20002300E00223184614378D
:10484000BD465DF8047B704780B588B000AF7860E6
:104850007B68002B01D1012328E17B6893F841306C
:10486000DBB2002B09D17B68002283F840207B68F3
:10487000904A5A637868FDF753FC7B68022283F8FC
:1048800041207B681B68DB697A68126823F47B63CC
:1048900023F00F03D3617B681B6802221A627B68D6
:1048A0005B69022B60D07B68DB68002B02D1102390
:1048B0007B6101E020237B617B689B68202B02D811
:1048C0007B695B007B61012001F034FFF8607B684D
:1048D0001B69B3F5007F25D17B68DB68002B10D006
:1048E0007B699B00FA68B2FBF3F213469B0013440A
:1048F0005B001A467B685B69B2FBF3F305333B61EF
:104900001FE07B69DB00FA68B2FBF3F213469B0001
:1049100013445B001A467B685B69B2FBF3F3053313
:104920003B610EE0FA687B69B2FBF3F213469B0031
:1049300013445B001A467B685B69B2FBF3F30533F3
:104940003B613B695C4AA2FB0323DB083B613B699B
:1049500003F00103BB613A69BB69D31A5B08FB61D1
:10496000BB691B02BB6103E00223FB610023BB6147
:10497000FB69012B02D9FB69FF2B07D97B685B6CB4
:1049800043F010027B685A6401238FE07B681A6948
:10499000BB6942EA03017B681B68FA690A431A6231
:1049A0007B681B68DB6923F47B6323F00F037A6861
:1049B00051687A68926811437A68D26811437A68BC
:1049C00092690A431A437B681B6842F40062DA6109
:1049D0007B681B6A012B61D17B68384A5A637B680C
:1049E0001B68374A934201D1364B01E04FF0402318
:1049F000DB697A68126832498A4201D1314A01E0A2
:104A00004FF0402223F47B6323F00F03D3617B68D4
:104A10001B682B4A934201D12A4B01E04FF04023FF
:104A200002221A627B681B68254A934201D1254BFA
:104A300001E04FF04023DB697B817B685B68B3F565
:104A4000007F03D07B685B68002B03D14FF4807339
:104A50003B6101E000233B613B699AB27B689B6844
:104A60009BB213439AB27B68DB689BB213439AB242
:104A70007B689B699BB213439AB27B8913439BB2B9
:104A800043F400637B817B681B680D4A934201D12C
:104A90000C4B01E04FF040237A89DA617B680022F9
:104AA0005A647B68012283F841200023184620378E
:104AB000BD4680BD45530008CDCCCCCCCD540008BC
:104AC000003800400034004080B586B000AFF86088
:104AD000B9601346FB80BB68002B02D0FB88002B1B
:104AE00001D101238EE0FB6893F84030DBB2012B4B
:104AF00001D1022386E0FB68012283F84020FB6895
:104B000093F84130DBB2012B05D0FB68002283F81B
:104B10004020022376E0FB68032283F84120FB68F3
:104B200000225A64FB68BA685A62FB681B68DB693A
:104B300003F007037B617B69032B02D07B69052BA4
:104B40000AD1FB885B009AB2FB681A85FB885B0080
:104B50009AB2FB685A8505E0FB68FA881A85FB68FB
:104B6000FA885A85FB689B6B284A1A64FB689B6B22
:104B7000274ADA63FB689B6B264ADA64FB68986B0A
:104B8000FB685B6A1946FB681B680C331A46FB68B6
:104B90001B8D9BB2FEF70EF90346002B0FD0FB686E
:104BA0005B6C43F00802FB685A64FB68012283F8DF
:104BB0004120FB68002283F84020012322E0FB68AB
:104BC0001B68DB6903F48063002B07D1FB681B685B
:104BD000DA69FB681B6842F48062DA61FB681B6873
:104BE0005B6803F00203002B07D1FB681B685A685F
:104BF000FB681B6842F002025A60FB68002283F8DF
:104C00004020002318461837BD4680BD23520008B7
:104C1000E15100083F52000880B483B000AF7860D3
:104C20007B6893F84030DBB2012B01D102234AE0CC
:104C30007B68012283F840207B6893F84130DBB227
:104C4000032B08D17B681B685A687B681B6822F0BD
:104C500002025A6032E07B6893F84130DBB2042BE9
:104C600008D17B681B685A687B681B6822F00102C8
:104C70005A6023E07B6893F84130DBB2052B1DD1ED
:104C80007B681B685A687B681B6822F003025A60C5
:104C90007B681B680F4A934201D10F4B01E04FF034
:104CA00040235A687B681B680A498B4201D10A4B32
:104CB00001E04FF0402322F003025A607B6800229B
:104CC00083F84020002318460C37BD465DF8047B6E
:104CD000704700BF003800400034004080B483B00B
:104CE00000AF78607B6893F84030DBB2012B01D1D4
:104CF00002237DE07B68012283F840207B6893F8E3
:104D00004130DBB2032B08D17B681B685A687B6893
:104D10001B6842F002025A6056E07B6893F841300B
:104D2000DBB2042B08D17B681B685A687B681B6860
:104D300042F001025A6047E07B6893F84130DBB2F1
:104D4000052B41D17B681B685A687B681B6842F061
:104D500003025A607B681B68284A934201D1284BA2
:104D600001E04FF040235A687B681B6823498B425F
:104D700001D1234B01E04FF0402342F003025A607F
:104D80007B681B681D4A934201D11D4B01E04FF027
:104D90004023DB6903F48063002B15D17B681B681B
:104DA000164A934201D1164B01E04FF04023DA69D5
:104DB0007B681B6811498B4201D1114B01E04FF018
:104DC000402342F48062DA617B681B68DB6903F48C
:104DD0008063002B07D17B681B68DA697B681B68DE
:104DE00042F48062DA617B68002283F8402000236D
:104DF00018460C37BD465DF8047B7047003800400C
:104E00000034004080B588B000AF78600023FB77A5
:104E10007B685B68B3F5007F04D07B685B68002B20
:104E200040F0D1807B689B6B002B0FD07B689B6B25
:104E30001846FEF717F80346002B07D07B685B6C1B
:104E400043F008027B685A640123FB776423012244
:104E50000221786800F000FB0346002B0BD07B6832
:104E60005B6C43F001027B685A647B68012283F823
:104E700041200123FB77642300228021786800F021
:104E8000EBFA0346002B0BD07B685B6C43F001020E
:104E90007B685A647B68012283F841200123FB77F9
:104EA0007B681B68DA697B681B6822F48062DA61C0
:104EB00000237B617B681B689B687B617B697B68E7
:104EC0001B685A687B681B6822F002025A607B6884
:104ED00093F84130DBB2052B40F065817B68DB6BDA
:104EE000002B0FD07B68DB6B1846FDF7BBFF03463A
:104EF000002B07D07B685B6C43F008027B685A6428
:104F00000123FB777B681B688A4A934201D18A4B55
:104F100001E04FF04023DA697B681B6885498B42CA
:104F200001D1854B01E04FF0402322F48062DA6129
:104F300000233B617B681B687E4A934201D17E4B14
:104F400001E04FF04023DB683B617B681B68794AD6
:104F5000934201D1784B01E04FF040239B683B61C5
:104F60003B697B681B68734A934201D1724B01E035
:104F70004FF040235A687B681B686E498B4201D111
:104F80006D4B01E04FF0402322F001025A607B6834
:104F90005B68002B0CD17B685B6C43F040027B6844
:104FA0005A647B68012283F841200123FB77FAE0F1
:104FB0007B681B685F4A934201D15F4B01E04FF071
:104FC0004023DB68EFE07B685B68B3F5407F05D08A
:104FD0007B685B68B3F5807F40F0E5807B68DB6BC6
:104FE000002B0FD07B68DB6B1846FDF73BFF0346B9
:104FF000002B07D07B685B6C43F008027B685A6427
:105000000123FB777B6893F84130DBB2052B40F03E
:105010009A807B689B6B002B0FD07B689B6B18463C
:10502000FDF720FF0346002B07D07B685B6C43F045
:1050300008027B685A640123FB77FDF7D1FCB86155
:1050400012E0FDF7CDFC0246BB69D31A642B0BD9E5
:105050007B685B6C43F001027B685A647B680122C9
:1050600083F841200123FB777B681B68314A934218
:1050700001D1314B01E04FF040239B6803F0020364
:10508000022BDED112E0FDF7ABFC0246BB69D31A5E
:10509000642B0BD97B685B6C43F001027B685A641C
:1050A0007B68012283F841200123FB777B681B6822
:1050B000204A934201D1204B01E04FF040239B68EE
:1050C00003F08003802BDED07B681B68194A934273
:1050D00001D1194B01E04FF04023DA697B681B686E
:1050E00014498B4201D1144B01E04FF0402322F4CC
:1050F0008062DA610023FB607B681B680D4A934283
:1051000001D10D4B01E04FF040239B68FB60FB6831
:105110007B681B68074A934201D1074B01E04FF0BF
:1051200040235A687B681B6802498B4206D1024BB8
:1051300006E000BF00380040003400404FF040233C
:1051400022F002025A607B681B68DA697B681B6880
:1051500022F48062DA610023BB607B681B68DB6835
:10516000BB607B681B689B68BB60BB687B681B6817
:105170005A687B681B6822F001025A607B685B6892
:10518000B3F5807F0CD17B685B6C43F040027B6899
:105190005A647B68012283F841200123FB7702E0F7
:1051A0007B681B68DB687B68012283F84120FB7FFA
:1051B00018462037BD4680BD80B483B000AF78600C
:1051C00000BF0C37BD465DF8047B704780B483B0E8
:1051D00000AF786000BF0C37BD465DF8047B7047B8
:1051E00080B584B000AF78607B689B6BFB607B68A8
:1051F000DB69002B0ED1FB681B685A68FB681B68D3
:1052000022F002025A60FB6800225A85FB680122E4
:1052100083F84120F868FDF773FB00BF1037BD46E7
:1052200080BD80B584B000AF78607B689B6BFB600D
:10523000F868FDF755FB00BF1037BD4680BD80B54F
:1052400084B000AF78607B689B6BFB60FB681B6879
:105250005A68FB681B6822F003025A60FB68002250
:105260005A85FB6800225A86FB68012283F8412098
:10527000FB685B6C43F00802FB685A64F868FFF750
:10528000A5FF00BF1037BD4680BD80B582B000AF1E
:1052900078607B685B6A1A887B681B68DA607B6869
:1052A0005B6A9A1C7B685A627B685B8D9BB2013B90
:1052B0009AB27B685A857B685B8D9BB2002B0ED1BE
:1052C0007B681B685A687B681B6822F0A0025A60E2
:1052D0007B68012283F841207868FDF711FB00BF4D
:1052E0000837BD4680BD80B582B000AF78607B686E
:1052F0001B68DA687B68DB6A92B21A807B68DB6ABB
:105300009A1C7B68DA627B685B8E9BB2013B9AB227
:105310007B685A867B685B8E9BB2002B0ED17B68C4
:105320001B685A687B681B6822F060025A607B68C1
:10533000012283F841207868FFF73EFF00BF08375D
:10534000BD4680BD80B586B000AF78607B681B68C5
:105350009B687B617B6893F84130DBB2042B3AD1C8
:105360007B6903F00103012B09D17B681B685B6833
:1053700003F04003402B02D17868FFF7B4FF7B694C
:1053800003F04003402B26D17B681B685B6803F069
:105390002003202B1FD17B681B685A687B681B6821
:1053A00022F060025A6000233B617B681B68DB6867
:1053B0003B617B681B689B683B613B697B680122A2
:1053C00083F841207B685B6C43F002027B685A647F
:1053D0007868FFF7FBFE7B6893F84130DBB2032B64
:1053E00036D17B6903F00203022B09D17B681B686D
:1053F0005B6803F08003802B02D17868FFF745FFDC
:105400007B6903F00803082B22D17B681B685B686B
:1054100003F02003202B1BD17B681B685A687B6834
:105420001B6822F0A0025A600023FB607B681B68A7
:105430009B68FB60FB687B68012283F841207B68E6
:105440005B6C43F004027B685A647868FFF7BEFE29
:1054500000BF1837BD4680BD80B586B000AFF8608C
:10546000B9603B601346FB71FDF7BAFA786118E04A
:105470003B68B3F1FF3F14D0FDF7B2FA02467B69F7
:10548000D31A3A689A4202D93B68002B09D1FB68CB
:10549000012283F84120FB68002283F84020032387
:1054A0000FE0FB681B689A68BB681340BA689A42B1
:1054B0000CBF01230023DBB21A46FB799A42D7D1F5
:1054C000002318461837BD4680BD000080B588B05F
:1054D00000AF78607B681B689B68FB617B681B681A
:1054E000924A934201D1924B01E04FF040239B68D6
:1054F000BB617B681B685B687B617B681B688B4A50
:10550000934201D18A4B01E04FF040235B683B613D
:105510007B685B68B3F5007F04D07B685B68002B19
:1055200040F09980FB6903F00203022B07D17B69ED
:1055300003F08003002B02D0786800F025F9BB69E6
:1055400003F00103012B07D13B6903F04003002B5B
:1055500002D0786800F0C8F9BB6903F04003402B23
:105560003AD13B6903F02003002B35D07B681B68E0
:105570006E4A934201D16E4B01E04FF040235A68CE
:105580007B681B6869498B4201D1694B01E04FF090
:10559000402322F060025A607B681B685A687B686F
:1055A0001B6822F0A0025A600023FB607B681B6826
:1055B000DB68FB607B681B689B68FB60FB687B6843
:1055C000012283F841207B685B6C43F002027B6818
:1055D0005A647868FFF7FAFDFB6903F00803082BAB
:1055E00040F0C3807B6903F02003002B00F0BD80F6
:1055F0007B681B685A687B681B6822F0A0025A60AF
:105600007B681B68494A934201D1494B01E04FF046
:1056100040235A687B681B6844498B4201D1444B44
:1056200001E04FF0402322F060025A600023BB608B
:105630007B681B689B68BB60BB687B68012283F842
:1056400041207B685B6C43F004027B685A64786895
:10565000FFF7BCFD89E0BB6903F00203022B07D111
:105660003B6903F08003002B02D0786800F0BEF89D
:10567000FB6903F00103012B07D17B6903F04003B1
:10568000002B02D0786800F0FDF8FB6903F04003BE
:10569000402B2FD17B6903F02003002B2AD07B689D
:1056A0001B685A687B681B6822F060025A607B683E
:1056B0001B681E4A934201D11D4B01E04FF040236D
:1056C0005A687B681B6819498B4201D1184B01E06D
:1056D0004FF0402322F0A0025A607B68012283F839
:1056E00041207B685B6C43F002027B685A647868F7
:1056F000FFF76CFDBB6903F00803082B36D13B694B
:1057000003F02003002B31D07B681B68074A9342CB
:1057100001D1074B01E04FF040235A687B681B68BA
:1057200002498B4206D1024B06E000BF0038004020
:10573000003400404FF0402322F0A0025A607B6802
:105740001B685A687B681B6822F060025A607B689D
:10575000012283F841207B685B6C43F004027B6884
:105760005A647868FFF732FD00E000BF00BF2037C1
:10577000BD4680BD80B483B000AF786000BF0C37F9
:10578000BD465DF8047B704780B582B000AF78609D
:105790007B685B6A991C7A6851621A887B681B680F
:1057A000DA607B685B8D9BB2013B9AB27B685A855D
:1057B0007B685B8D9BB2002B13D17B681B685A689A
:1057C0007B681B6822F0A0025A607B685B8E9BB2EC
:1057D000002B06D17B68012283F841207868FFF70F
:1057E000C9FF00BF0837BD4680BD000080B582B04C
:1057F00000AF78607B685B6A991C7A68516219888F
:105800007B681B681D4A934201D11D4B01E04FF09C
:1058100040230A46DA607B685B8D9BB2013B9AB2FB
:105820007B685A857B685B8D9BB2002B21D17B689E
:105830001B68124A934201D1114B01E04FF0402303
:105840005A687B681B680D498B4201D10C4B01E003
:105850004FF0402322F0A0025A607B685B8E9BB21F
:10586000002B06D17B68012283F841207868FFF77E
:1058700081FF00BF0837BD4680BD00BF0038004033
:105880000034004080B582B000AF78607B681B6850
:10589000D8687B68DB6A991C7A68D16282B21A8008
:1058A0007B685B8E9BB2013B9AB27B685A867B68B1
:1058B0005B8E9BB2002B13D17B681B685A687B6898
:1058C0001B6822F060025A607B685B8D9BB2002BE4
:1058D00006D17B68012283F841207868FFF74AFFF0
:1058E00000BF0837BD4680BD80B582B000AF78608C
:1058F0007B681B68204A934201D1204B01E04FF0A6
:105900004023D8687B68DB6A991C7A68D16282B2CE
:105910001A807B685B8E9BB2013B9AB27B685A8689
:105920007B685B8E9BB2002B21D17B681B68124A7F
:10593000934201D1114B01E04FF040235A687B683C
:105940001B680D498B4201D10C4B01E04FF0402305
:1059500022F060025A607B685B8D9BB2002B06D1FF
:105960007B68012283F841207868FFF703FF00BFBE
:105970000837BD4680BD00BF0038004000340040FD
:1059800080B582B000AF00237B6000233B60204BDA
:105990001B6C1F4A43F0805313641D4B1B6C03F0B8
:1059A00080533B603B681B4B01221A60FDF718F8DF
:1059B000786009E0FDF714F802467B68D31AB3F566
:1059C0007A7F01D903231FE0134B5B6803F4803314
:1059D000B3F5803FEED1114B01221A60FDF700F8BC
:1059E000786009E0FCF7FCFF02467B68D31AB3F548
:1059F0007A7F01D9032307E0074B5B6803F4003388
:105A0000B3F5003FEED1002318460837BD4680BDF0
:105A10000038024040000E420070004044000E4238
:105A200080B586B000AF78607B68002B01D1012380
:105A300067E27B681B6803F00103002B75D0884B7D
:105A40009B6803F00C03042B0CD0854B9B6803F080
:105A50000C03082B12D1824B5B6803F48003B3F56F
:105A6000800F0BD17E4B1B6803F40033002B5BD0FF
:105A70007B685B68002B57D1012342E27B685B683F
:105A8000B3F5803F06D1764B1B68754A43F48033EB
:105A900013601DE07B685B68B3F5A02F0CD1704BE1
:105AA0001B686F4A43F4802313606D4B1B686C4A7C
:105AB00043F4803313600BE0694B1B68684A23F49E
:105AC00080331360664B1B68654A23F480231360A0
:105AD0007B685B68002B13D0FCF782FF386108E01D
